{
  "contractName": "ConvertLib",
  "abi": [
    {
      "constant": true,
      "inputs": [
        {
          "name": "amount",
          "type": "uint256"
        },
        {
          "name": "conversionRate",
          "type": "uint256"
        }
      ],
      "name": "convert",
      "outputs": [
        {
          "name": "convertedAmount",
          "type": "uint256"
        }
      ],
      "payable": false,
      "stateMutability": "pure",
      "type": "function",
      "signature": "0x96e4ee3d"
    }
  ],
  "bytecode": "0x60d7610025600b82828239805160001a60731461001857fe5b30600052607381538281f3fe73000000000000000000000000000000000000000030146080604052600436106050576000357c01000000000000000000000000000000000000000000000000000000009004806396e4ee3d146055575b600080fd5b608860048036036040811015606957600080fd5b810190808035906020019092919080359060200190929190505050609e565b6040518082815260200191505060405180910390f35b600081830290509291505056fea165627a7a723058204b380439dc3db91cd7841b567701fb41286a78d931b3edb58dba4491e1429ed50029",
  "source": "pragma solidity >=0.4.25 <0.6.0;\n\nlibrary ConvertLib{\n\tfunction convert(uint amount,uint conversionRate) public pure returns (uint convertedAmount)\n\t{\n\t\treturn amount * conversionRate;\n\t}\n}\n",
  "sourcePath": "/home/super/BlockChainProjects/GTF/contracts/ConvertLib.sol",
  "compiler": {
    "name": "solc",
    "version": "0.5.8+commit.23d335f2.Emscripten.clang"
  },
  "schemaVersion": "3.0.6",
  "updatedAt": "2019-05-26T00:54:40.276Z",
  "devdoc": {
    "methods": {}
  },
  "userdoc": {
    "methods": {}
  }
}