{
  "contractName": "FungibleToken",
  "abi": [
    {
      "constant": true,
      "inputs": [],
      "name": "_totalSupply",
      "outputs": [
        {
          "name": "",
          "type": "uint256"
        }
      ],
      "payable": false,
      "stateMutability": "view",
      "type": "function"
    },
    {
      "anonymous": false,
      "inputs": [
        {
          "indexed": true,
          "name": "from",
          "type": "address"
        },
        {
          "indexed": true,
          "name": "to",
          "type": "address"
        },
        {
          "indexed": false,
          "name": "value",
          "type": "uint256"
        }
      ],
      "name": "Transfer",
      "type": "event"
    },
    {
      "anonymous": false,
      "inputs": [
        {
          "indexed": true,
          "name": "owner",
          "type": "address"
        },
        {
          "indexed": true,
          "name": "oprator",
          "type": "address"
        },
        {
          "indexed": false,
          "name": "value",
          "type": "uint256"
        }
      ],
      "name": "Approval",
      "type": "event"
    },
    {
      "constant": true,
      "inputs": [],
      "name": "totalSupply",
      "outputs": [
        {
          "name": "",
          "type": "uint256"
        }
      ],
      "payable": false,
      "stateMutability": "view",
      "type": "function"
    },
    {
      "constant": true,
      "inputs": [
        {
          "name": "owner",
          "type": "address"
        }
      ],
      "name": "balanceOf",
      "outputs": [
        {
          "name": "",
          "type": "uint256"
        }
      ],
      "payable": false,
      "stateMutability": "view",
      "type": "function"
    },
    {
      "constant": true,
      "inputs": [
        {
          "name": "owner",
          "type": "address"
        },
        {
          "name": "oprator",
          "type": "address"
        }
      ],
      "name": "allowance",
      "outputs": [
        {
          "name": "",
          "type": "uint256"
        }
      ],
      "payable": false,
      "stateMutability": "view",
      "type": "function"
    },
    {
      "constant": false,
      "inputs": [
        {
          "name": "oprator",
          "type": "address"
        },
        {
          "name": "value",
          "type": "uint256"
        }
      ],
      "name": "approve",
      "outputs": [
        {
          "name": "",
          "type": "bool"
        }
      ],
      "payable": false,
      "stateMutability": "nonpayable",
      "type": "function"
    },
    {
      "constant": false,
      "inputs": [
        {
          "name": "to",
          "type": "address"
        },
        {
          "name": "value",
          "type": "uint256"
        }
      ],
      "name": "transfer",
      "outputs": [
        {
          "name": "",
          "type": "bool"
        }
      ],
      "payable": false,
      "stateMutability": "nonpayable",
      "type": "function"
    },
    {
      "constant": false,
      "inputs": [
        {
          "name": "from",
          "type": "address"
        },
        {
          "name": "to",
          "type": "address"
        },
        {
          "name": "value",
          "type": "uint256"
        }
      ],
      "name": "transferFrom",
      "outputs": [
        {
          "name": "",
          "type": "bool"
        }
      ],
      "payable": false,
      "stateMutability": "nonpayable",
      "type": "function"
    }
  ],
  "bytecode": "0x608060405234801561001057600080fd5b5061084f806100206000396000f3fe608060405234801561001057600080fd5b506004361061009a576000357c0100000000000000000000000000000000000000000000000000000000900480633eaaf86b116100785780633eaaf86b146101a957806370a08231146101c7578063a9059cbb1461021f578063dd62ed3e146102855761009a565b8063095ea7b31461009f57806318160ddd1461010557806323b872dd14610123575b600080fd5b6100eb600480360360408110156100b557600080fd5b81019080803573ffffffffffffffffffffffffffffffffffffffff169060200190929190803590602001909291905050506102fd565b604051808215151515815260200191505060405180910390f35b61010d610314565b6040518082815260200191505060405180910390f35b61018f6004803603606081101561013957600080fd5b81019080803573ffffffffffffffffffffffffffffffffffffffff169060200190929190803573ffffffffffffffffffffffffffffffffffffffff1690602001909291908035906020019092919050505061031e565b604051808215151515815260200191505060405180910390f35b6101b16103cf565b6040518082815260200191505060405180910390f35b610209600480360360208110156101dd57600080fd5b81019080803573ffffffffffffffffffffffffffffffffffffffff1690602001909291905050506103d5565b6040518082815260200191505060405180910390f35b61026b6004803603604081101561023557600080fd5b81019080803573ffffffffffffffffffffffffffffffffffffffff1690602001909291908035906020019092919050505061041d565b604051808215151515815260200191505060405180910390f35b6102e76004803603604081101561029b57600080fd5b81019080803573ffffffffffffffffffffffffffffffffffffffff169060200190929190803573ffffffffffffffffffffffffffffffffffffffff169060200190929190505050610434565b6040518082815260200191505060405180910390f35b600061030a3384846104bb565b6001905092915050565b6000600254905090565b600061032b84848461061a565b6103c484336103bf85600160008a73ffffffffffffffffffffffffffffffffffffffff1673ffffffffffffffffffffffffffffffffffffffff16815260200190815260200160002060003373ffffffffffffffffffffffffffffffffffffffff1673ffffffffffffffffffffffffffffffffffffffff168152602001908152602001600020546107e490919063ffffffff16565b6104bb565b600190509392505050565b60025481565b60008060008373ffffffffffffffffffffffffffffffffffffffff1673ffffffffffffffffffffffffffffffffffffffff168152602001908152602001600020549050919050565b600061042a33848461061a565b6001905092915050565b6000600160008473ffffffffffffffffffffffffffffffffffffffff1673ffffffffffffffffffffffffffffffffffffffff16815260200190815260200160002060008373ffffffffffffffffffffffffffffffffffffffff1673ffffffffffffffffffffffffffffffffffffffff16815260200190815260200160002054905092915050565b600073ffffffffffffffffffffffffffffffffffffffff168273ffffffffffffffffffffffffffffffffffffffff1614156104f557600080fd5b600073ffffffffffffffffffffffffffffffffffffffff168373ffffffffffffffffffffffffffffffffffffffff16141561052f57600080fd5b80600160008573ffffffffffffffffffffffffffffffffffffffff1673ffffffffffffffffffffffffffffffffffffffff16815260200190815260200160002060008473ffffffffffffffffffffffffffffffffffffffff1673ffffffffffffffffffffffffffffffffffffffff168152602001908152602001600020819055508173ffffffffffffffffffffffffffffffffffffffff168373ffffffffffffffffffffffffffffffffffffffff167f8c5be1e5ebec7d5bd14f71427d1e84f3dd0314c0f7b2291e5b200ac8c7c3b925836040518082815260200191505060405180910390a3505050565b600073ffffffffffffffffffffffffffffffffffffffff168273ffffffffffffffffffffffffffffffffffffffff16141561065457600080fd5b6106a5816000808673ffffffffffffffffffffffffffffffffffffffff1673ffffffffffffffffffffffffffffffffffffffff168152602001908152602001600020546107e490919063ffffffff16565b6000808573ffffffffffffffffffffffffffffffffffffffff1673ffffffffffffffffffffffffffffffffffffffff16815260200190815260200160002081905550610738816000808573ffffffffffffffffffffffffffffffffffffffff1673ffffffffffffffffffffffffffffffffffffffff1681526020019081526020016000205461080490919063ffffffff16565b6000808473ffffffffffffffffffffffffffffffffffffffff1673ffffffffffffffffffffffffffffffffffffffff168152602001908152602001600020819055508173ffffffffffffffffffffffffffffffffffffffff168373ffffffffffffffffffffffffffffffffffffffff167fddf252ad1be2c89b69c2b068fc378daa952ba7f163c4a11628f55a4df523b3ef836040518082815260200191505060405180910390a3505050565b6000828211156107f357600080fd5b600082840390508091505092915050565b60008082840190508381101561081957600080fd5b809150509291505056fea165627a7a72305820fd37d41f6ee9d5054306c1c046a33f44a5381545b8f751e25dae393f2315e6e70029",
  "source": "pragma solidity ^ 0.5.2;\n\nimport \"../tokenCore/iTokenCore.sol\";\nimport \"../safe/safeMath.sol\";\n\n/**\n * @title Standard fungible token\n * @dev Implementation of the basic standard fungible token.\n */\n\ncontract FungibleToken is ITokenCore {\n    \n    using SafeMath for uint256;\n    \n    mapping (address => uint256) private _balances;\n    \n    mapping (address => mapping (address => uint256)) private _allowed;\n    \n    uint256 public _totalSupply;\n    \n    /**\n    * @dev return the total number of fungible tokens in currency.\n    * @return uint256\n    */\n    function totalSupply() public view returns (uint256) {\n        return _totalSupply;\n    }\n    \n    /**\n    * @dev return the balance of the speified address\n    * @param owner the address to query the balance of\n    * @return a uint256 num\n    */\n    function balanceOf(address owner) public view returns (uint256) {\n        return _balances[owner];\n    }\n    \n    /**\n    * @dev check the amount of tokens that oprator can use\n    * @param owner address \n    * @param oprator address\n    * @return uint256\n    */\n    function allowance(address owner, address oprator) public view returns (uint256) {\n        return _allowed[owner][oprator];\n    }\n    \n    /**\n     * @dev approve the passed address to spend the specified amount of tokens on behalf pf msg.sender\n     * @param oprator address\n     * @param value uint256\n     * @return bool\n     */\n    function approve(address oprator, uint256 value) public returns (bool) {\n        _approve(msg.sender, oprator, value);\n    \n     return true;\n    }\n\n    \n    /**\n    * @dev transfer token to a specified address by token owner\n    * @param to the address to tranfer to \n    * @param value the amount to be transferred\n    * @return bool\n    */\n    function transfer(address to, uint256 value) public returns (bool) {\n        _transfer(msg.sender, to, value);\n    \n       return true;\n    }\n    \n    /**\n     * @dev transfer tokens from owner to dest by oprator\n     * @param from owner address\n     * @param to dest address\n     * @param value uint256  \n     * @return bool\n     */\n    function transferFrom(address from, address to, uint256 value) public returns (bool) {\n        _transfer(from, to, value);\n        _approve(from, msg.sender, _allowed[from][msg.sender].sub(value));\n    \n     return true;\n    }\n    \n    function _transfer(address from, address to, uint256 value) internal {\n        require(to != address(0));\n        \n        _balances[from] = _balances[from].sub(value);\n        _balances[to] = _balances[to].add(value);\n        \n        emit Transfer(from, to, value);\n    }\n    \n    function _approve(address owner, address spender, uint256 value) internal {\n        require(spender != address(0));\n        require(owner != address(0));\n        \n        _allowed[owner][spender] = value;\n        \n        emit Approval(owner, spender, value);\n    }\n    \n    function _mint(address miner, uint256 value) internal {\n        require(miner != address(0));\n        \n        _totalSupply = _totalSupply.add(value);\n        _balances[miner] = _balances[miner].add(value);\n        \n        emit Transfer(address(0), miner, value);\n    }\n }",
  "sourcePath": "/home/super/BlockChainProjects/GTF/contracts/ft/fungibleToken.sol",
  "compiler": {
    "name": "solc",
    "version": "0.5.8+commit.23d335f2.Emscripten.clang"
  },
  "schemaVersion": "3.0.6",
  "updatedAt": "2019-05-26T00:54:17.918Z",
  "devdoc": {
    "details": "Implementation of the basic standard fungible token.",
    "methods": {
      "allowance(address,address)": {
        "details": "check the amount of tokens that oprator can use",
        "params": {
          "oprator": "address",
          "owner": "address "
        },
        "return": "uint256"
      },
      "approve(address,uint256)": {
        "details": "approve the passed address to spend the specified amount of tokens on behalf pf msg.sender",
        "params": {
          "oprator": "address",
          "value": "uint256"
        },
        "return": "bool"
      },
      "balanceOf(address)": {
        "details": "return the balance of the speified address",
        "params": {
          "owner": "the address to query the balance of"
        },
        "return": "a uint256 num"
      },
      "totalSupply()": {
        "details": "return the total number of fungible tokens in currency.",
        "return": "uint256"
      },
      "transfer(address,uint256)": {
        "details": "transfer token to a specified address by token owner",
        "params": {
          "to": "the address to tranfer to ",
          "value": "the amount to be transferred"
        },
        "return": "bool"
      },
      "transferFrom(address,address,uint256)": {
        "details": "transfer tokens from owner to dest by oprator",
        "params": {
          "from": "owner address",
          "to": "dest address",
          "value": "uint256  "
        },
        "return": "bool"
      }
    },
    "title": "Standard fungible token"
  },
  "userdoc": {
    "methods": {}
  }
}